:020000040000FA
:0400000097EF0BF07B
:10080000002A2A2A41554C41204C4C454E412A2A67
:100810002A0052464944204C4543545552412054E5
:1008200041470053616C696F3A20256420200045E0
:100830006E74726F3A2025642020002320256420E6
:1008400000001EC036F01FC037F020C038F021C0B5
:1008500039F022C03AF023C03BF024C03CF025C060
:100860003DF03DBE36EF04F039EF04F0010E3AEFF3
:1008700004F0000E346E356A34503510D8B443EFAE
:1008800004F045EF04F055EF04F03D1E3C1E3B1E06
:100890003A1E391E381E371E366C000E372238229B
:1008A00039223A223B223C223D22000165BF5BEF08
:1008B00004F05DEF04F05EEF04F0669365BF6BEF4C
:1008C00004F0655106E16405D8B069EF04F06BEF00
:1008D00004F071EF04F0000E316E010E306E75EF12
:1008E00004F064C030F065C031F062C032F063C023
:1008F00033F034503510D8A480EF04F082EF04F0C8
:1009000089EF04F066A587EF04F089EF04F08CEF1F
:1009100004F03206D8A03306000E3F6E1F0E3E6E66
:10092000000E896F10EF05F03E06D8A03F066A0E54
:100930003E24D96E000E3F20DA6E36C001F037C07B
:1009400002F038C003F039C004F03AC005F03BC0F3
:1009500006F03CC007F03DC008F00A0E096E000E1C
:100960000A6E000E0B6E000E0C6E000E0D6E000E69
:100970000E6E000E0F6E000E106E47EC08F001C0F8
:1009800026F002C027F003C028F004C029F005C0FB
:100990002AF006C02BF007C02CF008C02DF026C0AE
:1009A00013F028C014F03CEC0BF01350300FDF6E46
:1009B0003006D8A031063206D8A0330636C001F082
:1009C00037C002F038C003F039C004F03AC005F077
:1009D0003BC006F03CC007F03DC008F00A0E096EAF
:1009E000000E0A6E000E0B6E000E0C6E000E0D6EE9
:1009F000000E0E6E000E0F6E000E106E83EC07F0F0
:100A000001C036F002C037F003C038F004C039F03E
:100A100005C03AF006C03BF007C03CF008C03DF00E
:100A20003FBE1BEF05F03F5008E13E04D8A01BEF8E
:100A300005F01DEF05F04EEF05F036503710381079
:100A400039103A103B103C103D10D8A42AEF05F0A5
:100A50002CEF05F094EF04F031BE39EF05F0315082
:100A600006E13004D8B037EF05F039EF05F094EF28
:100A700004F033BE44EF05F0335008E13204D8A04F
:100A800044EF05F046EF05F04EEF05F0000166B3C8
:100A90004CEF05F04EEF05F094EF04F034503510B4
:100AA000D8A455EF05F057EF05F05FEF05F0000112
:100AB00066A55DEF05F05FEF05F07DEF05F03E0602
:100AC000D8A03F0634503510D8A469EF05F06BEF7D
:100AD00005F071EF05F0000E2F6E2B0E2E6E75EFE8
:100AE00005F0000E2F6E2D0E2E6E6A0E3E24D96E6E
:100AF000000E3F20DA6E2EC0DFFF1CC011F01DC0BB
:100B000012F06A0E3E24136E000E3F20146E32C0A7
:100B100015F033C016F0CDEC09F011C01CF012C076
:100B20001DF012009E0E0001A86FF9EC08F0A2EC77
:100B30000BF0000E046E000E036E000E066E000E2B
:100B4000056E5CEC0BF0120E036E080E046E30ECBA
:100B50000AF03D0E5F6EE10E5E6E400EE82EFED78F
:100B60005E2EFCD75F2EFAD782A0B9EF05F0BBEF5F
:100B700005F027EF06F0000169BFCAEF05F06951E3
:100B800007E1050E685DD8B0C8EF05F0CAEF05F0C3
:100B900027EF06F00D0E5F6E2D0E5E6ED80EE82E5E
:100BA000FED75E2EFCD75F2EFAD782B0DAEF05F0C3
:100BB000DCEF05F0D5EF05F0940E586E000E596E7F
:100BC0002F0E5A6E080E5B6EA8C05CF05D6AF1ECE9
:100BD0000AF0000E046E010E036E000E066E000E8B
:100BE000056E5CEC0BF0940E036E000E046E30ECA0
:100BF0000AF00001684B692B8A0E586E000E596E80
:100C00003B0E5A6E080E5B6E68C05CF069C05DF00A
:100C1000F1EC0AF0000E046E010E036E000E066E7B
:100C20000C0E056E5CEC0BF08A0E036E000E046E6B
:100C300030EC0AF00D0E5F6E2D0E5E6ED80EE82EB3
:100C4000FED75E2EFCD75F2EFAD77FEF06F082A28A
:100C50002CEF06F02EEF06F07FEF06F0000169BFE3
:100C60003AEF06F0695108E16805D8A03AEF06F0BE
:100C70003CEF06F07FEF06F00D0E5F6E2D0E5E6E00
:100C8000D80EE82EFED75E2EFCD75F2EFAD782B2A2
:100C90004CEF06F04EEF06F047EF06F0940E586E5C
:100CA000000E596E230E5A6E080E5B6EA8C05CF0E3
:100CB0005D6AF1EC0AF0000E046E010E036E000E88
:100CC000066E000E056E5CEC0BF0940E036E000ECB
:100CD000046E30EC0AF000016807D8A069078A0E9C
:100CE000586E000E596E3B0E5A6E080E5B6E68C051
:100CF0005CF069C05DF0F1EC0AF00AEF06F0050E59
:100D0000000168196911D8A488EF06F08AEF06F08F
:100D1000B4EF05F00D0E5F6E2D0E5E6ED80EE82E50
:100D2000FED75E2EFCD75F2EFAD7000E046E010EA2
:100D3000036E000E066E000E056E5CEC0BF0010EED
:100D4000036E080E046E30EC0AF0B4EF05F000EF0D
:100D500000F042C0D9FF43C0DAFFDECFF6FFDDCF9F
:100D6000F7FF0800F550250AD8A4B9EF06F0BBEF4D
:100D700006F067EF07F042C0D9FF43C0DAFFDE2A72
:100D8000000EDD22000E0001636F000E626F62C074
:100D900066F063C067F06469656942C0D9FF43C00B
:100DA000DAFFDECFF6FFDDCFF7FF0800F550640A6B
:100DB000D8B4DDEF06F0DFEF06F0F1EF06F042C049
:100DC000D9FF43C0DAFFDECFF6FFDDCFF7FF080023
:100DD000F550690AD8A4EFEF06F0F1EF06F031EF15
:100DE00007F042C0D9FF43C0DAFFDE2A000EDD2241
:100DF00044C0D9FF45C0DAFFDFCF46F0020EDE2641
:100E0000DFCF47F0000EDD2246C0D9FF47C0DAFF32
:100E1000DECF48F0DDCF49F0000E49BEFF0E4A6E2E
:100E20004B6E4C6E4D6E4E6E4F6E40C01CF041C00E
:100E30001DF048C01EF049C01FF04AC020F04BC052
:100E400021F04CC022F04DC023F04EC024F04FC022
:100E500025F021EC04F01CC040F01DC041F082EFF1
:100E600007F042C0D9FF43C0DAFFDECFF6FFDDCF87
:100E7000F7FF0800F550250AD8A441EF07F043EF2B
:100E800007F05AEF07F042C0D9FF43C0DAFFDE2A6D
:100E9000000EDD22000E026E250E016E40C003F032
:100EA00041C004F068EC09F0000E416E010E406E86
:100EB00082EF07F042C0D9FF43C0DAFFDE2A000EFE
:100EC000DD22000E416E000E406E82EF07F042C040
:100ED000D9FF43C0DAFFDECFF6FFDDCFF7FF080012
:100EE000F550016E026A40C003F041C004F068ECA6
:100EF00009F042C0D9FF43C0DAFFDE2A000EDD222E
:100F000054EF07F01200000E126E10BE8CEF07F0C7
:100F10008AEF07F09EEF07F0101E0F1E0E1E0D1E2B
:100F20000C1E0B1E0A1E096C000E0A220B220C223C
:100F30000D220E220F221022010E126E08BEA5EF06
:100F400007F0A3EF07F0B7EF07F0081E071E061E15
:100F5000051E041E031E021E016C000E0222032247
:100F600004220522062207220822010E121A20EE70
:100F700013F0070EDE6AE806FDE209500A100B10B6
:100F80000C100D100E100F101010D8B4CAEF07F08F
:100F9000CCEF07F01EEF08F0010E116EDAEF07F04C
:100FA000D89009360A360B360C360D360E360F360B
:100FB0001036112A10AEDFEF07F0E1EF07F0D0EFA7
:100FC00007F0D890133614361536163617361836FD
:100FD00019361A360950015C0A5002580B50035852
:100FE0000C5004580D5005580E5006580F50075815
:100FF00010500858D8A0FFEF07F001EF08F012EFEB
:1010000008F00950015E0A50025A0B50035A0C5066
:10101000045A0D50055A0E50065A0F50075A1050D8
:10102000085A1380D89010320F320E320D320C3223
:101030000B320A320932112EE1EF07F01250D8B408
:1010400024EF08F026EF08F036EF08F01A1E191EFC
:10105000181E171E161E151E141E136C000E1422C9
:10106000152216221722182219221A2213C001F063
:1010700014C002F015C003F016C004F017C005F04C
:1010800018C006F019C007F01AC008F01200000ED0
:10109000126E08BE50EF08F04EEF08F062EF08F055
:1010A000081E071E061E051E041E031E021E016CDE
:1010B000000E022203220422052206220722082211
:1010C000010E126E10BE69EF08F067EF08F079EFBD
:1010D00008F0101E0F1E0E1E0D1E0C1E0B1E0A1EEB
:1010E000096C000E0A220B220C220D220E220F2266
:1010F000102209500A100B100C100D100E100F10BA
:101100001010D8B486EF08F088EF08F0D0EF08F0A0
:10111000010E116E96EF08F0D89009360A360B369C
:101120000C360D360E360F361036112A10AE9BEFE8
:1011300008F09DEF08F08CEF08F00950015C0A50B0
:1011400002580B5003580C5004580D5005580E50BF
:1011500006580F50075810500858D8A0B2EF08F0A2
:10116000B4EF08F0C4EF08F00950015E0A50025ACB
:101170000B50035A0C50045A0D50055A0E50065A83
:101180000F50075A1050085AD89010320F320E32B2
:101190000D320C320B320A320932112E9DEF08F05B
:1011A0001250D8B4D6EF08F0D8EF08F0E8EF08F006
:1011B000081E071E061E051E041E031E021E016CCD
:1011C000000E022203220422052206220722082200
:1011D00001C001F002C002F003C003F004C004F03B
:1011E00005C005F006C006F007C007F008C008F00B
:1011F0001200959C959A9598F00E8316F00E951610
:101200008C9C8C9A8C98EA0E036EC30EE82EFED747
:10121000032EFCD700F0300E98EC0AF04E0E036E51
:10122000EB0EE82EFED7032EFCD700F0300E98EC24
:101230000AF0F00E00D0E82EFDD7320E98EC0AF03E
:10124000030E036E550EE82EFED7032EFCD700F0DA
:10125000030E036E550EE82EFED7032EFCD700F0CA
:10126000280E98EC0AF0030E036E550EE82EFED7FA
:10127000032EFCD700F0080E98EC0AF0030E036E64
:10128000550EE82EFED7032EFCD700F0010E98EC89
:101290000AF04E0E036EEB0EE82EFED7032EFCD79F
:1012A00000F0060E98EC0AF0030E036E550EE82EC1
:1012B000FED7032EFCD700F00C0E98EC0AF0030EBC
:1012C000036E550EE82EFED7032EFCD700F0120059
:1012D00003500410D8B46FEF09F071EF09F07AEF02
:1012E00009F003500410D8A478EF09F07AEF09F060
:1012F0007FEF09F00150A6EC0BF0CCEF09F020EEE7
:1013000004F00350D9260450DA22DE50DE10D8B49F
:101310008CEF09F08EEF09F0A9EF09F020EE04F050
:101320000350D9260450DA2210EE02F00350E126D1
:101330000450E222DE50E65CE650800A096EDE5080
:10134000800A0958D8B0A7EF09F0A9EF09F0CCEF4F
:1013500009F020EE02F00350D9260450DA22DECF45
:1013600005F0DDCF06F003C0D9FF04C0DAFFDECF01
:1013700007F0DDCF08F005500724D96E065008208D
:10138000DA6E01C0DFFF20EE02F00350D9260450D0
:10139000DA22DE2A000EDD221200000166A1D3EF60
:1013A00009F0D5EF09F0DFEF09F013C00AF014C01F
:1013B0000BF011C00CF012C00DF01AEC0BF016BEC1
:1013C000E4EF09F0E6EF09F0ECEF09F015C01AF0D0
:1013D00016C01BF0F0EF09F0000E1B6E000E1A6E27
:1013E000000E196E000E186E02EF0AF0000E026E6B
:1013F000200E016E11C003F012C004F068EC09F079
:10140000184A192A1A50185C1950800A176E1B5076
:10141000800A1758D8A00FEF0AF011EF0AF0F6EF84
:1014200009F0000166B117EF0AF019EF0AF023EF97
:101430000AF013C00AF014C00BF011C00CF012C077
:101440000DF01AEC0BF013C001F014C002F07CECAC
:101450000BF01A500124116E1B500220126E120064
:101460004EEF0AF0030E056E550EE82EFED7052E40
:10147000FCD700F003C0F6FF04C0F7FFF86A070EC0
:10148000F76403D00800F55005D0F6CFE1FFF7CFA1
:10149000E2FFE750C5EC0AF0034A042A03C0F6FF56
:1014A00004C0F7FFF86A070EF76403D00800F55090
:1014B00005D0F6CFE1FFF7CFE2FFE7500009D8A44F
:1014C00064EF0AF066EF0AF032EF0AF0120052C041
:1014D00056F053C057F0000E0001616F000E606FB0
:1014E00085EF0AF050C040F051C041F0560E426EF8
:1014F000000E436E54C044F055C045F0A9EC06F010
:101500004050000160274150612356C0F6FF57C08C
:10151000F7FF0800F5500009D8A491EF0AF093EF07
:101520000AF072EF0AF060C050F061C051F0120092
:10153000026E030E016E550EE82EFED7012EFCD76B
:1015400000F0F00E9516F00E831602380F0B0F0BFD
:101550008310836E8C9C8C9A3C0EE82EFED78C8870
:101560003C0EE82EFED78C98F00E831602500F0B1F
:101570008310836E3C0EE82EFED78C883C0EE82E3E
:10158000FED78C980F0E95121200026E030E016E9C
:10159000550EE82EFED7012EFCD700F0F00E831674
:1015A000F00E951602380F0B0F0B8310836E8C8A8A
:1015B0008C9C3C0EE82EFED78C883C0EE82EFED785
:1015C0008C98F00E831602500F0B83123C0EE82EFF
:1015D000FED78C883C0EE82EFED78C980F0E951205
:1015E00012005C0E0001A06F000EA16F58C0A2F0A7
:1015F00059C0A3F0000EA56F000EA46F000EA76FD8
:10160000000EA66FA20E506E000E516E5AC052F020
:101610005BC053F0A00E546E000E556E67EC0AF0DE
:101620000001A4515824D96EA5515920DA6E000E3C
:10163000DF6E1200000E106E000E0F6E2BEF0BF01F
:101640000EC001F0026A0CC003F00DC004F068EC9B
:1016500009F00F4A102A0F500A24D96E10500B209F
:10166000DA6EDF500E6E0E50D8A439EF0BF03BEF60
:101670000BF020EF0BF0120014BE49EF0BF01450EA
:1016800006E11304D8B047EF0BF049EF0BF057EF2A
:101690000BF013C015F014C016F0151E161E154AD7
:1016A000162A15C013F016C014F05BEF0BF013C030
:1016B00013F014C014F01200030E076E550EE82E3E
:1016C000FED7072EFCD700F004BE6FEF0BF00450DE
:1016D00008E10304D8A06FEF0BF071EF0BF077EF88
:1016E0000BF00550C00F98EC0AF07BEF0BF00550A3
:1016F000800F98EC0AF0120001C003F002C004F061
:1017000084EF0BF0014A022A01C0D9FF02C0DAFFC0
:10171000DF50D8A48EEF0BF090EF0BF082EF0BF0C0
:101720000350015C016E04500258026E120000EE7C
:1017300060F03E0EEE6AE806FDE1000EF86E000174
:0E17400092EF05F00F0EC11294681200120015
:020000040020DA
:08000000FFFFFFFFFFFFFFFF00
:020000040030CA
:0E000000040E181EFF0381FF0FC00FE00F401B
:00000001FF
